{
  "_format": "hh-sol-artifact-1",
  "contractName": "MyEpicNFT",
  "sourceName": "contracts/MyEpicNFT.sol",
  "abi": [
    {
      "inputs": [],
      "stateMutability": "nonpayable",
      "type": "constructor"
    },
    {
      "anonymous": false,
      "inputs": [
        {
          "indexed": true,
          "internalType": "address",
          "name": "owner",
          "type": "address"
        },
        {
          "indexed": true,
          "internalType": "address",
          "name": "approved",
          "type": "address"
        },
        {
          "indexed": true,
          "internalType": "uint256",
          "name": "tokenId",
          "type": "uint256"
        }
      ],
      "name": "Approval",
      "type": "event"
    },
    {
      "anonymous": false,
      "inputs": [
        {
          "indexed": true,
          "internalType": "address",
          "name": "owner",
          "type": "address"
        },
        {
          "indexed": true,
          "internalType": "address",
          "name": "operator",
          "type": "address"
        },
        {
          "indexed": false,
          "internalType": "bool",
          "name": "approved",
          "type": "bool"
        }
      ],
      "name": "ApprovalForAll",
      "type": "event"
    },
    {
      "anonymous": false,
      "inputs": [
        {
          "indexed": false,
          "internalType": "address",
          "name": "sender",
          "type": "address"
        },
        {
          "indexed": false,
          "internalType": "uint256",
          "name": "tokenId",
          "type": "uint256"
        }
      ],
      "name": "NewEpicNFTMinted",
      "type": "event"
    },
    {
      "anonymous": false,
      "inputs": [
        {
          "indexed": true,
          "internalType": "address",
          "name": "from",
          "type": "address"
        },
        {
          "indexed": true,
          "internalType": "address",
          "name": "to",
          "type": "address"
        },
        {
          "indexed": true,
          "internalType": "uint256",
          "name": "tokenId",
          "type": "uint256"
        }
      ],
      "name": "Transfer",
      "type": "event"
    },
    {
      "inputs": [
        {
          "internalType": "address",
          "name": "to",
          "type": "address"
        },
        {
          "internalType": "uint256",
          "name": "tokenId",
          "type": "uint256"
        }
      ],
      "name": "approve",
      "outputs": [],
      "stateMutability": "nonpayable",
      "type": "function"
    },
    {
      "inputs": [
        {
          "internalType": "address",
          "name": "owner",
          "type": "address"
        }
      ],
      "name": "balanceOf",
      "outputs": [
        {
          "internalType": "uint256",
          "name": "",
          "type": "uint256"
        }
      ],
      "stateMutability": "view",
      "type": "function"
    },
    {
      "inputs": [
        {
          "internalType": "uint256",
          "name": "tokenId",
          "type": "uint256"
        }
      ],
      "name": "getApproved",
      "outputs": [
        {
          "internalType": "address",
          "name": "",
          "type": "address"
        }
      ],
      "stateMutability": "view",
      "type": "function"
    },
    {
      "inputs": [
        {
          "internalType": "address",
          "name": "owner",
          "type": "address"
        },
        {
          "internalType": "address",
          "name": "operator",
          "type": "address"
        }
      ],
      "name": "isApprovedForAll",
      "outputs": [
        {
          "internalType": "bool",
          "name": "",
          "type": "bool"
        }
      ],
      "stateMutability": "view",
      "type": "function"
    },
    {
      "inputs": [],
      "name": "makeAnEpicNFT",
      "outputs": [],
      "stateMutability": "nonpayable",
      "type": "function"
    },
    {
      "inputs": [],
      "name": "name",
      "outputs": [
        {
          "internalType": "string",
          "name": "",
          "type": "string"
        }
      ],
      "stateMutability": "view",
      "type": "function"
    },
    {
      "inputs": [
        {
          "internalType": "uint256",
          "name": "tokenId",
          "type": "uint256"
        }
      ],
      "name": "ownerOf",
      "outputs": [
        {
          "internalType": "address",
          "name": "",
          "type": "address"
        }
      ],
      "stateMutability": "view",
      "type": "function"
    },
    {
      "inputs": [
        {
          "internalType": "uint256",
          "name": "tokenId",
          "type": "uint256"
        }
      ],
      "name": "pickRandomColor",
      "outputs": [
        {
          "internalType": "string",
          "name": "",
          "type": "string"
        }
      ],
      "stateMutability": "view",
      "type": "function"
    },
    {
      "inputs": [
        {
          "internalType": "uint256",
          "name": "tokenId",
          "type": "uint256"
        }
      ],
      "name": "pickRandomFirstWord",
      "outputs": [
        {
          "internalType": "string",
          "name": "",
          "type": "string"
        }
      ],
      "stateMutability": "view",
      "type": "function"
    },
    {
      "inputs": [
        {
          "internalType": "uint256",
          "name": "tokenId",
          "type": "uint256"
        }
      ],
      "name": "pickRandomSecondWord",
      "outputs": [
        {
          "internalType": "string",
          "name": "",
          "type": "string"
        }
      ],
      "stateMutability": "view",
      "type": "function"
    },
    {
      "inputs": [
        {
          "internalType": "uint256",
          "name": "tokenId",
          "type": "uint256"
        }
      ],
      "name": "pickRandomThirdWord",
      "outputs": [
        {
          "internalType": "string",
          "name": "",
          "type": "string"
        }
      ],
      "stateMutability": "view",
      "type": "function"
    },
    {
      "inputs": [
        {
          "internalType": "address",
          "name": "from",
          "type": "address"
        },
        {
          "internalType": "address",
          "name": "to",
          "type": "address"
        },
        {
          "internalType": "uint256",
          "name": "tokenId",
          "type": "uint256"
        }
      ],
      "name": "safeTransferFrom",
      "outputs": [],
      "stateMutability": "nonpayable",
      "type": "function"
    },
    {
      "inputs": [
        {
          "internalType": "address",
          "name": "from",
          "type": "address"
        },
        {
          "internalType": "address",
          "name": "to",
          "type": "address"
        },
        {
          "internalType": "uint256",
          "name": "tokenId",
          "type": "uint256"
        },
        {
          "internalType": "bytes",
          "name": "_data",
          "type": "bytes"
        }
      ],
      "name": "safeTransferFrom",
      "outputs": [],
      "stateMutability": "nonpayable",
      "type": "function"
    },
    {
      "inputs": [
        {
          "internalType": "address",
          "name": "operator",
          "type": "address"
        },
        {
          "internalType": "bool",
          "name": "approved",
          "type": "bool"
        }
      ],
      "name": "setApprovalForAll",
      "outputs": [],
      "stateMutability": "nonpayable",
      "type": "function"
    },
    {
      "inputs": [
        {
          "internalType": "bytes4",
          "name": "interfaceId",
          "type": "bytes4"
        }
      ],
      "name": "supportsInterface",
      "outputs": [
        {
          "internalType": "bool",
          "name": "",
          "type": "bool"
        }
      ],
      "stateMutability": "view",
      "type": "function"
    },
    {
      "inputs": [],
      "name": "symbol",
      "outputs": [
        {
          "internalType": "string",
          "name": "",
          "type": "string"
        }
      ],
      "stateMutability": "view",
      "type": "function"
    },
    {
      "inputs": [
        {
          "internalType": "uint256",
          "name": "tokenId",
          "type": "uint256"
        }
      ],
      "name": "tokenURI",
      "outputs": [
        {
          "internalType": "string",
          "name": "",
          "type": "string"
        }
      ],
      "stateMutability": "view",
      "type": "function"
    },
    {
      "inputs": [
        {
          "internalType": "address",
          "name": "from",
          "type": "address"
        },
        {
          "internalType": "address",
          "name": "to",
          "type": "address"
        },
        {
          "internalType": "uint256",
          "name": "tokenId",
          "type": "uint256"
        }
      ],
      "name": "transferFrom",
      "outputs": [],
      "stateMutability": "nonpayable",
      "type": "function"
    }
  ],
  "bytecode": "0x608060405260405180610160016040528061012f81526020016200489161012f9139600790805190602001906200003892919062000861565b5060405180610100016040528060d38152602001620049c060d39139600890805190602001906200006b92919062000861565b5060405180608001604052806056815260200162004a9360569139600990805190602001906200009d92919062000861565b506040518060c001604052806040518060400160405280600781526020017f4e677579656e200000000000000000000000000000000000000000000000000081525081526020016040518060400160405280600681526020017f5472696e6820000000000000000000000000000000000000000000000000000081525081526020016040518060400160405280600581526020017f5068616e2000000000000000000000000000000000000000000000000000000081525081526020016040518060400160405280600581526020017f5472616e2000000000000000000000000000000000000000000000000000000081525081526020016040518060400160405280600381526020017f4c6520000000000000000000000000000000000000000000000000000000000081525081526020016040518060400160405280600581526020017f44696e6820000000000000000000000000000000000000000000000000000000815250815250600a9060066200021b929190620008f2565b506040518060c001604052806040518060400160405280600481526020017f517579200000000000000000000000000000000000000000000000000000000081525081526020016040518060400160405280600481526020017f56616e200000000000000000000000000000000000000000000000000000000081525081526020016040518060400160405280600681526020017f486f616e6720000000000000000000000000000000000000000000000000000081525081526020016040518060400160405280600481526020017f546869200000000000000000000000000000000000000000000000000000000081525081526020016040518060400160405280600481526020017f416e68200000000000000000000000000000000000000000000000000000000081525081526020016040518060400160405280600581526020017f4e676f6320000000000000000000000000000000000000000000000000000000815250815250600b90600662000399929190620008f2565b506040518060c001604052806040518060400160405280600381526020017f4d6169000000000000000000000000000000000000000000000000000000000081525081526020016040518060400160405280600381526020017f447563000000000000000000000000000000000000000000000000000000000081525081526020016040518060400160405280600481526020017f53616e670000000000000000000000000000000000000000000000000000000081525081526020016040518060400160405280600481526020017f44756e670000000000000000000000000000000000000000000000000000000081525081526020016040518060400160405280600381526020017f487565000000000000000000000000000000000000000000000000000000000081525081526020016040518060400160405280600681526020017f4e677579656e0000000000000000000000000000000000000000000000000000815250815250600c90600662000517929190620008f2565b506040518060c001604052806040518060400160405280600381526020017f726564000000000000000000000000000000000000000000000000000000000081525081526020016040518060400160405280600781526020017f233038433241380000000000000000000000000000000000000000000000000081525081526020016040518060400160405280600581526020017f626c61636b00000000000000000000000000000000000000000000000000000081525081526020016040518060400160405280600681526020017f79656c6c6f77000000000000000000000000000000000000000000000000000081525081526020016040518060400160405280600481526020017f626c75650000000000000000000000000000000000000000000000000000000081525081526020016040518060400160405280600581526020017f677265656e000000000000000000000000000000000000000000000000000000815250815250600d90600662000695929190620008f2565b50348015620006a357600080fd5b506040518060400160405280600981526020017f5371756172654e465400000000000000000000000000000000000000000000008152506040518060400160405280600681526020017f535155415245000000000000000000000000000000000000000000000000000081525081600090805190602001906200072892919062000861565b5080600190805190602001906200074192919062000861565b5050506200078f6040518060400160405280601781526020017f54686973206973206d79204e465420636f6e74726163740000000000000000008152506200079560201b620013531760201c565b62000b13565b6200083581604051602401620007ac919062000a27565b6040516020818303038152906040527f41304fac000000000000000000000000000000000000000000000000000000007bffffffffffffffffffffffffffffffffffffffffffffffffffffffff19166020820180517bffffffffffffffffffffffffffffffffffffffffffffffffffffffff83818316178352505050506200083860201b60201c565b50565b60008151905060006a636f6e736f6c652e6c6f679050602083016000808483855afa5050505050565b8280546200086f9062000a9d565b90600052602060002090601f016020900481019282620008935760008555620008df565b82601f10620008ae57805160ff1916838001178555620008df565b82800160010185558215620008df579182015b82811115620008de578251825591602001919060010190620008c1565b5b509050620008ee919062000959565b5090565b82805482825590600052602060002090810192821562000946579160200282015b82811115620009455782518290805190602001906200093492919062000861565b509160200191906001019062000913565b5b50905062000955919062000978565b5090565b5b80821115620009745760008160009055506001016200095a565b5090565b5b808211156200099c5760008181620009929190620009a0565b5060010162000979565b5090565b508054620009ae9062000a9d565b6000825580601f10620009c25750620009e3565b601f016020900490600052602060002090810190620009e2919062000959565b5b50565b6000620009f38262000a4b565b620009ff818562000a56565b935062000a1181856020860162000a67565b62000a1c8162000b02565b840191505092915050565b6000602082019050818103600083015262000a438184620009e6565b905092915050565b600081519050919050565b600082825260208201905092915050565b60005b8381101562000a8757808201518184015260208101905062000a6a565b8381111562000a97576000848401525b50505050565b6000600282049050600182168062000ab657607f821691505b6020821081141562000acd5762000acc62000ad3565b5b50919050565b7f4e487b7100000000000000000000000000000000000000000000000000000000600052602260045260246000fd5b6000601f19601f8301169050919050565b613d6e8062000b236000396000f3fe608060405234801561001057600080fd5b50600436106101165760003560e01c806370a08231116100a2578063b88d4fde11610071578063b88d4fde14610317578063c575757a14610333578063c87b56dd14610363578063de9d132f14610393578063e985e9c51461039d57610116565b806370a082311461027d57806395d89b41146102ad578063a22cb465146102cb578063b187301f146102e757610116565b806323b872dd116100e957806323b872dd146101b55780632de38d68146101d157806342842e0e14610201578063514dc8c61461021d5780636352211e1461024d57610116565b806301ffc9a71461011b57806306fdde031461014b578063081812fc14610169578063095ea7b314610199575b600080fd5b61013560048036038101906101309190612760565b6103cd565b6040516101429190612f0e565b60405180910390f35b6101536104af565b6040516101609190612f29565b60405180910390f35b610183600480360381019061017e91906127b2565b610541565b6040516101909190612e7e565b60405180910390f35b6101b360048036038101906101ae9190612724565b6105c6565b005b6101cf60048036038101906101ca919061261e565b6106de565b005b6101eb60048036038101906101e691906127b2565b61073e565b6040516101f89190612f29565b60405180910390f35b61021b6004803603810190610216919061261e565b61085c565b005b610237600480360381019061023291906127b2565b61087c565b6040516102449190612f29565b60405180910390f35b610267600480360381019061026291906127b2565b61099a565b6040516102749190612e7e565b60405180910390f35b610297600480360381019061029291906125b9565b610a4c565b6040516102a49190613189565b60405180910390f35b6102b5610b04565b6040516102c29190612f29565b60405180910390f35b6102e560048036038101906102e091906126e8565b610b96565b005b61030160048036038101906102fc91906127b2565b610bac565b60405161030e9190612f29565b60405180910390f35b610331600480360381019061032c919061266d565b610cca565b005b61034d600480360381019061034891906127b2565b610d2c565b60405161035a9190612f29565b60405180910390f35b61037d600480360381019061037891906127b2565b610e4a565b60405161038a9190612f29565b60405180910390f35b61039b610f9c565b005b6103b760048036038101906103b291906125e2565b6112bf565b6040516103c49190612f0e565b60405180910390f35b60007f80ac58cd000000000000000000000000000000000000000000000000000000007bffffffffffffffffffffffffffffffffffffffffffffffffffffffff1916827bffffffffffffffffffffffffffffffffffffffffffffffffffffffff1916148061049857507f5b5e139f000000000000000000000000000000000000000000000000000000007bffffffffffffffffffffffffffffffffffffffffffffffffffffffff1916827bffffffffffffffffffffffffffffffffffffffffffffffffffffffff1916145b806104a857506104a7826113ec565b5b9050919050565b6060600080546104be9061341d565b80601f01602080910402602001604051908101604052809291908181526020018280546104ea9061341d565b80156105375780601f1061050c57610100808354040283529160200191610537565b820191906000526020600020905b81548152906001019060200180831161051a57829003601f168201915b5050505050905090565b600061054c82611456565b61058b576040517f08c379a000000000000000000000000000000000000000000000000000000000815260040161058290613109565b60405180910390fd5b6004600083815260200190815260200160002060009054906101000a900473ffffffffffffffffffffffffffffffffffffffff169050919050565b60006105d18261099a565b90508073ffffffffffffffffffffffffffffffffffffffff168373ffffffffffffffffffffffffffffffffffffffff161415610642576040517f08c379a000000000000000000000000000000000000000000000000000000000815260040161063990613149565b60405180910390fd5b8073ffffffffffffffffffffffffffffffffffffffff166106616114c2565b73ffffffffffffffffffffffffffffffffffffffff161480610690575061068f8161068a6114c2565b6112bf565b5b6106cf576040517f08c379a00000000000000000000000000000000000000000000000000000000081526004016106c690613049565b60405180910390fd5b6106d983836114ca565b505050565b6106ef6106e96114c2565b82611583565b61072e576040517f08c379a000000000000000000000000000000000000000000000000000000000815260040161072590613169565b60405180910390fd5b610739838383611661565b505050565b6060600061077261074e846118c8565b60405160200161075e9190612e18565b604051602081830303815290604052611a75565b9050600a805490508161078591906134c9565b9050600a81815481106107c1577f4e487b7100000000000000000000000000000000000000000000000000000000600052603260045260246000fd5b9060005260206000200180546107d69061341d565b80601f01602080910402602001604051908101604052809291908181526020018280546108029061341d565b801561084f5780601f106108245761010080835404028352916020019161084f565b820191906000526020600020905b81548152906001019060200180831161083257829003601f168201915b5050505050915050919050565b61087783838360405180602001604052806000815250610cca565b505050565b606060006108b061088c846118c8565b60405160200161089c9190612e5c565b604051602081830303815290604052611a75565b9050600d80549050816108c391906134c9565b9050600d81815481106108ff577f4e487b7100000000000000000000000000000000000000000000000000000000600052603260045260246000fd5b9060005260206000200180546109149061341d565b80601f01602080910402602001604051908101604052809291908181526020018280546109409061341d565b801561098d5780601f106109625761010080835404028352916020019161098d565b820191906000526020600020905b81548152906001019060200180831161097057829003601f168201915b5050505050915050919050565b6000806002600084815260200190815260200160002060009054906101000a900473ffffffffffffffffffffffffffffffffffffffff169050600073ffffffffffffffffffffffffffffffffffffffff168173ffffffffffffffffffffffffffffffffffffffff161415610a43576040517f08c379a0000000000000000000000000000000000000000000000000000000008152600401610a3a90613089565b60405180910390fd5b80915050919050565b60008073ffffffffffffffffffffffffffffffffffffffff168273ffffffffffffffffffffffffffffffffffffffff161415610abd576040517f08c379a0000000000000000000000000000000000000000000000000000000008152600401610ab490613069565b60405180910390fd5b600360008373ffffffffffffffffffffffffffffffffffffffff1673ffffffffffffffffffffffffffffffffffffffff168152602001908152602001600020549050919050565b606060018054610b139061341d565b80601f0160208091040260200160405190810160405280929190818152602001828054610b3f9061341d565b8015610b8c5780601f10610b6157610100808354040283529160200191610b8c565b820191906000526020600020905b815481529060010190602001808311610b6f57829003601f168201915b5050505050905090565b610ba8610ba16114c2565b8383611aa8565b5050565b60606000610be0610bbc846118c8565b604051602001610bcc9190612db1565b604051602081830303815290604052611a75565b9050600b8054905081610bf391906134c9565b9050600b8181548110610c2f577f4e487b7100000000000000000000000000000000000000000000000000000000600052603260045260246000fd5b906000526020600020018054610c449061341d565b80601f0160208091040260200160405190810160405280929190818152602001828054610c709061341d565b8015610cbd5780601f10610c9257610100808354040283529160200191610cbd565b820191906000526020600020905b815481529060010190602001808311610ca057829003601f168201915b5050505050915050919050565b610cdb610cd56114c2565b83611583565b610d1a576040517f08c379a0000000000000000000000000000000000000000000000000000000008152600401610d1190613169565b60405180910390fd5b610d2684848484611c15565b50505050565b60606000610d60610d3c846118c8565b604051602001610d4c9190612d8f565b604051602081830303815290604052611a75565b9050600c8054905081610d7391906134c9565b9050600c8181548110610daf577f4e487b7100000000000000000000000000000000000000000000000000000000600052603260045260246000fd5b906000526020600020018054610dc49061341d565b80601f0160208091040260200160405190810160405280929190818152602001828054610df09061341d565b8015610e3d5780601f10610e1257610100808354040283529160200191610e3d565b820191906000526020600020905b815481529060010190602001808311610e2057829003601f168201915b5050505050915050919050565b6060610e5582611456565b610e94576040517f08c379a0000000000000000000000000000000000000000000000000000000008152600401610e8b906130e9565b60405180910390fd5b6000600660008481526020019081526020016000208054610eb49061341d565b80601f0160208091040260200160405190810160405280929190818152602001828054610ee09061341d565b8015610f2d5780601f10610f0257610100808354040283529160200191610f2d565b820191906000526020600020905b815481529060010190602001808311610f1057829003601f168201915b505050505090506000610f3e611c71565b9050600081511415610f54578192505050610f97565b600082511115610f89578082604051602001610f71929190612ccf565b60405160208183030381529060405292505050610f97565b610f9284611c88565b925050505b919050565b6000610fa8600e611d2f565b90506000610fb58261073e565b90506000610fc283610bac565b90506000610fcf84610d2c565b90506000838383604051602001610fe893929190612cf3565b604051602081830303815290604052905060006110048661087c565b905060006008826009856040516020016110219493929190612d24565b60405160208183030381529060405290506110706040518060400160405280601581526020017f0a2d2d2d2d2d2d2d2d2d2d2d2d2d2d2d2d2d2d2d2d0000000000000000000000815250611353565b61107981611353565b6110b76040518060400160405280601581526020017f2d2d2d2d2d2d2d2d2d2d2d2d2d2d2d2d2d2d2d2d0a0000000000000000000000815250611353565b60006110eb846110c684611d3d565b6040516020016110d7929190612dd3565b604051602081830303815290604052611d3d565b90506000816040516020016111009190612e3a565b604051602081830303815290604052905061114f6040518060400160405280601581526020017f0a2d2d2d2d2d2d2d2d2d2d2d2d2d2d2d2d2d2d2d2d0000000000000000000000815250611353565b61115881611353565b6111966040518060400160405280601581526020017f2d2d2d2d2d2d2d2d2d2d2d2d2d2d2d2d2d2d2d2d0a0000000000000000000000815250611353565b6111d46040518060400160405280601581526020017f0a2d2d2d2d2d2d2d2d2d2d2d2d2d2d2d2d2d2d2d2d0000000000000000000000815250611353565b6111fc816040516020016111e89190612d6d565b604051602081830303815290604052611353565b61123a6040518060400160405280601581526020017f2d2d2d2d2d2d2d2d2d2d2d2d2d2d2d2d2d2d2d2d0a0000000000000000000000815250611353565b611244338a611edc565b61124e8982611efa565b611258600e611f6e565b61127b604051806060016040528060258152602001613cd4602591398a33611f84565b7febb98688741ffa4c7589bf325de30cf7becb63de567842e1ccdb6cb949fdc82c338a6040516112ac929190612ee5565b60405180910390a1505050505050505050565b6000600560008473ffffffffffffffffffffffffffffffffffffffff1673ffffffffffffffffffffffffffffffffffffffff16815260200190815260200160002060008373ffffffffffffffffffffffffffffffffffffffff1673ffffffffffffffffffffffffffffffffffffffff16815260200190815260200160002060009054906101000a900460ff16905092915050565b6113e9816040516024016113679190612f29565b6040516020818303038152906040527f41304fac000000000000000000000000000000000000000000000000000000007bffffffffffffffffffffffffffffffffffffffffffffffffffffffff19166020820180517bffffffffffffffffffffffffffffffffffffffffffffffffffffffff8381831617835250505050612023565b50565b60007f01ffc9a7000000000000000000000000000000000000000000000000000000007bffffffffffffffffffffffffffffffffffffffffffffffffffffffff1916827bffffffffffffffffffffffffffffffffffffffffffffffffffffffff1916149050919050565b60008073ffffffffffffffffffffffffffffffffffffffff166002600084815260200190815260200160002060009054906101000a900473ffffffffffffffffffffffffffffffffffffffff1673ffffffffffffffffffffffffffffffffffffffff1614159050919050565b600033905090565b816004600083815260200190815260200160002060006101000a81548173ffffffffffffffffffffffffffffffffffffffff021916908373ffffffffffffffffffffffffffffffffffffffff160217905550808273ffffffffffffffffffffffffffffffffffffffff1661153d8361099a565b73ffffffffffffffffffffffffffffffffffffffff167f8c5be1e5ebec7d5bd14f71427d1e84f3dd0314c0f7b2291e5b200ac8c7c3b92560405160405180910390a45050565b600061158e82611456565b6115cd576040517f08c379a00000000000000000000000000000000000000000000000000000000081526004016115c490613029565b60405180910390fd5b60006115d88361099a565b90508073ffffffffffffffffffffffffffffffffffffffff168473ffffffffffffffffffffffffffffffffffffffff16148061164757508373ffffffffffffffffffffffffffffffffffffffff1661162f84610541565b73ffffffffffffffffffffffffffffffffffffffff16145b80611658575061165781856112bf565b5b91505092915050565b8273ffffffffffffffffffffffffffffffffffffffff166116818261099a565b73ffffffffffffffffffffffffffffffffffffffff16146116d7576040517f08c379a00000000000000000000000000000000000000000000000000000000081526004016116ce90612fa9565b60405180910390fd5b600073ffffffffffffffffffffffffffffffffffffffff168273ffffffffffffffffffffffffffffffffffffffff161415611747576040517f08c379a000000000000000000000000000000000000000000000000000000000815260040161173e90612fe9565b60405180910390fd5b61175283838361204c565b61175d6000826114ca565b6001600360008573ffffffffffffffffffffffffffffffffffffffff1673ffffffffffffffffffffffffffffffffffffffff16815260200190815260200160002060008282546117ad9190613333565b925050819055506001600360008473ffffffffffffffffffffffffffffffffffffffff1673ffffffffffffffffffffffffffffffffffffffff16815260200190815260200160002060008282546118049190613252565b92505081905550816002600083815260200190815260200160002060006101000a81548173ffffffffffffffffffffffffffffffffffffffff021916908373ffffffffffffffffffffffffffffffffffffffff160217905550808273ffffffffffffffffffffffffffffffffffffffff168473ffffffffffffffffffffffffffffffffffffffff167fddf252ad1be2c89b69c2b068fc378daa952ba7f163c4a11628f55a4df523b3ef60405160405180910390a46118c3838383612051565b505050565b60606000821415611910576040518060400160405280600181526020017f30000000000000000000000000000000000000000000000000000000000000008152509050611a70565b600082905060005b6000821461194257808061192b90613480565b915050600a8261193b91906132a8565b9150611918565b60008167ffffffffffffffff811115611984577f4e487b7100000000000000000000000000000000000000000000000000000000600052604160045260246000fd5b6040519080825280601f01601f1916602001820160405280156119b65781602001600182028036833780820191505090505b5090505b60008514611a69576001826119cf9190613333565b9150600a856119de91906134c9565b60306119ea9190613252565b60f81b818381518110611a26577f4e487b7100000000000000000000000000000000000000000000000000000000600052603260045260246000fd5b60200101907effffffffffffffffffffffffffffffffffffffffffffffffffffffffffffff1916908160001a905350600a85611a6291906132a8565b94506119ba565b8093505050505b919050565b600081604051602001611a889190612cb8565b6040516020818303038152906040528051906020012060001c9050919050565b8173ffffffffffffffffffffffffffffffffffffffff168373ffffffffffffffffffffffffffffffffffffffff161415611b17576040517f08c379a0000000000000000000000000000000000000000000000000000000008152600401611b0e90613009565b60405180910390fd5b80600560008573ffffffffffffffffffffffffffffffffffffffff1673ffffffffffffffffffffffffffffffffffffffff16815260200190815260200160002060008473ffffffffffffffffffffffffffffffffffffffff1673ffffffffffffffffffffffffffffffffffffffff16815260200190815260200160002060006101000a81548160ff0219169083151502179055508173ffffffffffffffffffffffffffffffffffffffff168373ffffffffffffffffffffffffffffffffffffffff167f17307eab39ab6107e8899845ad3d59bd9653f200f220920489ca2b5937696c3183604051611c089190612f0e565b60405180910390a3505050565b611c20848484611661565b611c2c84848484612056565b611c6b576040517f08c379a0000000000000000000000000000000000000000000000000000000008152600401611c6290612f89565b60405180910390fd5b50505050565b606060405180602001604052806000815250905090565b6060611c9382611456565b611cd2576040517f08c379a0000000000000000000000000000000000000000000000000000000008152600401611cc990613129565b60405180910390fd5b6000611cdc611c71565b90506000815111611cfc5760405180602001604052806000815250611d27565b80611d06846118c8565b604051602001611d17929190612ccf565b6040516020818303038152906040525b915050919050565b600081600001549050919050565b6060600082511415611d6057604051806020016040528060008152509050611ed7565b6000604051806060016040528060408152602001613cf96040913990506000600360028551611d8f9190613252565b611d9991906132a8565b6004611da591906132d9565b90506000602082611db69190613252565b67ffffffffffffffff811115611df5577f4e487b7100000000000000000000000000000000000000000000000000000000600052604160045260246000fd5b6040519080825280601f01601f191660200182016040528015611e275781602001600182028036833780820191505090505b509050818152600183018586518101602084015b81831015611e96576003830192508251603f8160121c168501518253600182019150603f81600c1c168501518253600182019150603f8160061c168501518253600182019150603f8116850151825360018201915050611e3b565b600389510660018114611eb05760028114611ec057611ecb565b613d3d60f01b6002830352611ecb565b603d60f81b60018303525b50505050508093505050505b919050565b611ef68282604051806020016040528060008152506121ed565b5050565b611f0382611456565b611f42576040517f08c379a0000000000000000000000000000000000000000000000000000000008152600401611f39906130a9565b60405180910390fd5b80600660008481526020019081526020016000209080519060200190611f69929190612445565b505050565b6001816000016000828254019250508190555050565b61201e838383604051602401611f9c93929190612f4b565b6040516020818303038152906040527fe3849f79000000000000000000000000000000000000000000000000000000007bffffffffffffffffffffffffffffffffffffffffffffffffffffffff19166020820180517bffffffffffffffffffffffffffffffffffffffffffffffffffffffff8381831617835250505050612023565b505050565b60008151905060006a636f6e736f6c652e6c6f679050602083016000808483855afa5050505050565b505050565b505050565b60006120778473ffffffffffffffffffffffffffffffffffffffff16612248565b156121e0578373ffffffffffffffffffffffffffffffffffffffff1663150b7a026120a06114c2565b8786866040518563ffffffff1660e01b81526004016120c29493929190612e99565b602060405180830381600087803b1580156120dc57600080fd5b505af192505050801561210d57506040513d601f19601f8201168201806040525081019061210a9190612789565b60015b612190573d806000811461213d576040519150601f19603f3d011682016040523d82523d6000602084013e612142565b606091505b50600081511415612188576040517f08c379a000000000000000000000000000000000000000000000000000000000815260040161217f90612f89565b60405180910390fd5b805181602001fd5b63150b7a0260e01b7bffffffffffffffffffffffffffffffffffffffffffffffffffffffff1916817bffffffffffffffffffffffffffffffffffffffffffffffffffffffff1916149150506121e5565b600190505b949350505050565b6121f7838361226b565b6122046000848484612056565b612243576040517f08c379a000000000000000000000000000000000000000000000000000000000815260040161223a90612f89565b60405180910390fd5b505050565b6000808273ffffffffffffffffffffffffffffffffffffffff163b119050919050565b600073ffffffffffffffffffffffffffffffffffffffff168273ffffffffffffffffffffffffffffffffffffffff1614156122db576040517f08c379a00000000000000000000000000000000000000000000000000000000081526004016122d2906130c9565b60405180910390fd5b6122e481611456565b15612324576040517f08c379a000000000000000000000000000000000000000000000000000000000815260040161231b90612fc9565b60405180910390fd5b6123306000838361204c565b6001600360008473ffffffffffffffffffffffffffffffffffffffff1673ffffffffffffffffffffffffffffffffffffffff16815260200190815260200160002060008282546123809190613252565b92505081905550816002600083815260200190815260200160002060006101000a81548173ffffffffffffffffffffffffffffffffffffffff021916908373ffffffffffffffffffffffffffffffffffffffff160217905550808273ffffffffffffffffffffffffffffffffffffffff16600073ffffffffffffffffffffffffffffffffffffffff167fddf252ad1be2c89b69c2b068fc378daa952ba7f163c4a11628f55a4df523b3ef60405160405180910390a461244160008383612051565b5050565b8280546124519061341d565b90600052602060002090601f01602090048101928261247357600085556124ba565b82601f1061248c57805160ff19168380011785556124ba565b828001600101855582156124ba579182015b828111156124b957825182559160200191906001019061249e565b5b5090506124c791906124cb565b5090565b5b808211156124e45760008160009055506001016124cc565b5090565b60006124fb6124f6846131c9565b6131a4565b90508281526020810184848401111561251357600080fd5b61251e8482856133db565b509392505050565b60008135905061253581613c77565b92915050565b60008135905061254a81613c8e565b92915050565b60008135905061255f81613ca5565b92915050565b60008151905061257481613ca5565b92915050565b600082601f83011261258b57600080fd5b813561259b8482602086016124e8565b91505092915050565b6000813590506125b381613cbc565b92915050565b6000602082840312156125cb57600080fd5b60006125d984828501612526565b91505092915050565b600080604083850312156125f557600080fd5b600061260385828601612526565b925050602061261485828601612526565b9150509250929050565b60008060006060848603121561263357600080fd5b600061264186828701612526565b935050602061265286828701612526565b9250506040612663868287016125a4565b9150509250925092565b6000806000806080858703121561268357600080fd5b600061269187828801612526565b94505060206126a287828801612526565b93505060406126b3878288016125a4565b925050606085013567ffffffffffffffff8111156126d057600080fd5b6126dc8782880161257a565b91505092959194509250565b600080604083850312156126fb57600080fd5b600061270985828601612526565b925050602061271a8582860161253b565b9150509250929050565b6000806040838503121561273757600080fd5b600061274585828601612526565b9250506020612756858286016125a4565b9150509250929050565b60006020828403121561277257600080fd5b600061278084828501612550565b91505092915050565b60006020828403121561279b57600080fd5b60006127a984828501612565565b91505092915050565b6000602082840312156127c457600080fd5b60006127d2848285016125a4565b91505092915050565b6127e481613367565b82525050565b6127f381613379565b82525050565b60006128048261320f565b61280e8185613225565b935061281e8185602086016133ea565b612827816135b6565b840191505092915050565b600061283d8261321a565b6128478185613236565b93506128578185602086016133ea565b612860816135b6565b840191505092915050565b60006128768261321a565b6128808185613247565b93506128908185602086016133ea565b80840191505092915050565b600081546128a98161341d565b6128b38186613247565b945060018216600081146128ce57600181146128df57612912565b60ff19831686528186019350612912565b6128e8856131fa565b60005b8381101561290a578154818901526001820191506020810190506128eb565b838801955050505b50505092915050565b6000612928602583613247565b9150612933826135c7565b602582019050919050565b600061294b603283613236565b915061295682613616565b604082019050919050565b600061296e602583613236565b915061297982613665565b604082019050919050565b6000612991601c83613236565b915061299c826136b4565b602082019050919050565b60006129b4600a83613247565b91506129bf826136dd565b600a82019050919050565b60006129d7602483613236565b91506129e282613706565b604082019050919050565b60006129fa601983613236565b9150612a0582613755565b602082019050919050565b6000612a1d606383613247565b9150612a288261377e565b606382019050919050565b6000612a40600b83613247565b9150612a4b82613819565b600b82019050919050565b6000612a63602c83613236565b9150612a6e82613842565b604082019050919050565b6000612a86600d83613247565b9150612a9182613891565b600d82019050919050565b6000612aa9603883613236565b9150612ab4826138ba565b604082019050919050565b6000612acc602a83613236565b9150612ad782613909565b604082019050919050565b6000612aef602983613236565b9150612afa82613958565b604082019050919050565b6000612b12602e83613236565b9150612b1d826139a7565b604082019050919050565b6000612b35600283613247565b9150612b40826139f6565b600282019050919050565b6000612b58602083613236565b9150612b6382613a1f565b602082019050919050565b6000612b7b603183613236565b9150612b8682613a48565b604082019050919050565b6000612b9e602c83613236565b9150612ba982613a97565b604082019050919050565b6000612bc1602f83613236565b9150612bcc82613ae6565b604082019050919050565b6000612be4600a83613247565b9150612bef82613b35565b600a82019050919050565b6000612c07602183613236565b9150612c1282613b5e565b604082019050919050565b6000612c2a600a83613247565b9150612c3582613bad565b600a82019050919050565b6000612c4d601d83613247565b9150612c5882613bd6565b601d82019050919050565b6000612c70603183613236565b9150612c7b82613bff565b604082019050919050565b6000612c93600583613247565b9150612c9e82613c4e565b600582019050919050565b612cb2816133d1565b82525050565b6000612cc4828461286b565b915081905092915050565b6000612cdb828561286b565b9150612ce7828461286b565b91508190509392505050565b6000612cff828661286b565b9150612d0b828561286b565b9150612d17828461286b565b9150819050949350505050565b6000612d30828761289c565b9150612d3c828661286b565b9150612d48828561289c565b9150612d54828461286b565b9150612d5f82612a79565b915081905095945050505050565b6000612d788261291b565b9150612d84828461286b565b915081905092915050565b6000612d9a826129a7565b9150612da6828461286b565b915081905092915050565b6000612dbc82612a33565b9150612dc8828461286b565b915081905092915050565b6000612dde82612bd7565b9150612dea828561286b565b9150612df582612a10565b9150612e01828461286b565b9150612e0c82612b28565b91508190509392505050565b6000612e2382612c1d565b9150612e2f828461286b565b915081905092915050565b6000612e4582612c40565b9150612e51828461286b565b915081905092915050565b6000612e6782612c86565b9150612e73828461286b565b915081905092915050565b6000602082019050612e9360008301846127db565b92915050565b6000608082019050612eae60008301876127db565b612ebb60208301866127db565b612ec86040830185612ca9565b8181036060830152612eda81846127f9565b905095945050505050565b6000604082019050612efa60008301856127db565b612f076020830184612ca9565b9392505050565b6000602082019050612f2360008301846127ea565b92915050565b60006020820190508181036000830152612f438184612832565b905092915050565b60006060820190508181036000830152612f658186612832565b9050612f746020830185612ca9565b612f8160408301846127db565b949350505050565b60006020820190508181036000830152612fa28161293e565b9050919050565b60006020820190508181036000830152612fc281612961565b9050919050565b60006020820190508181036000830152612fe281612984565b9050919050565b60006020820190508181036000830152613002816129ca565b9050919050565b60006020820190508181036000830152613022816129ed565b9050919050565b6000602082019050818103600083015261304281612a56565b9050919050565b6000602082019050818103600083015261306281612a9c565b9050919050565b6000602082019050818103600083015261308281612abf565b9050919050565b600060208201905081810360008301526130a281612ae2565b9050919050565b600060208201905081810360008301526130c281612b05565b9050919050565b600060208201905081810360008301526130e281612b4b565b9050919050565b6000602082019050818103600083015261310281612b6e565b9050919050565b6000602082019050818103600083015261312281612b91565b9050919050565b6000602082019050818103600083015261314281612bb4565b9050919050565b6000602082019050818103600083015261316281612bfa565b9050919050565b6000602082019050818103600083015261318281612c63565b9050919050565b600060208201905061319e6000830184612ca9565b92915050565b60006131ae6131bf565b90506131ba828261344f565b919050565b6000604051905090565b600067ffffffffffffffff8211156131e4576131e3613587565b5b6131ed826135b6565b9050602081019050919050565b60008190508160005260206000209050919050565b600081519050919050565b600081519050919050565b600082825260208201905092915050565b600082825260208201905092915050565b600081905092915050565b600061325d826133d1565b9150613268836133d1565b9250827fffffffffffffffffffffffffffffffffffffffffffffffffffffffffffffffff0382111561329d5761329c6134fa565b5b828201905092915050565b60006132b3826133d1565b91506132be836133d1565b9250826132ce576132cd613529565b5b828204905092915050565b60006132e4826133d1565b91506132ef836133d1565b9250817fffffffffffffffffffffffffffffffffffffffffffffffffffffffffffffffff0483118215151615613328576133276134fa565b5b828202905092915050565b600061333e826133d1565b9150613349836133d1565b92508282101561335c5761335b6134fa565b5b828203905092915050565b6000613372826133b1565b9050919050565b60008115159050919050565b60007fffffffff0000000000000000000000000000000000000000000000000000000082169050919050565b600073ffffffffffffffffffffffffffffffffffffffff82169050919050565b6000819050919050565b82818337600083830152505050565b60005b838110156134085780820151818401526020810190506133ed565b83811115613417576000848401525b50505050565b6000600282049050600182168061343557607f821691505b6020821081141561344957613448613558565b5b50919050565b613458826135b6565b810181811067ffffffffffffffff8211171561347757613476613587565b5b80604052505050565b600061348b826133d1565b91507fffffffffffffffffffffffffffffffffffffffffffffffffffffffffffffffff8214156134be576134bd6134fa565b5b600182019050919050565b60006134d4826133d1565b91506134df836133d1565b9250826134ef576134ee613529565b5b828206905092915050565b7f4e487b7100000000000000000000000000000000000000000000000000000000600052601160045260246000fd5b7f4e487b7100000000000000000000000000000000000000000000000000000000600052601260045260246000fd5b7f4e487b7100000000000000000000000000000000000000000000000000000000600052602260045260246000fd5b7f4e487b7100000000000000000000000000000000000000000000000000000000600052604160045260246000fd5b6000601f19601f8301169050919050565b7f68747470733a2f2f6e6674707265766965772e30786465762e636f6465732f3f60008201527f636f64653d000000000000000000000000000000000000000000000000000000602082015250565b7f4552433732313a207472616e7366657220746f206e6f6e20455243373231526560008201527f63656976657220696d706c656d656e7465720000000000000000000000000000602082015250565b7f4552433732313a207472616e736665722066726f6d20696e636f72726563742060008201527f6f776e6572000000000000000000000000000000000000000000000000000000602082015250565b7f4552433732313a20746f6b656e20616c7265616479206d696e74656400000000600082015250565b7f54484952445f574f524400000000000000000000000000000000000000000000600082015250565b7f4552433732313a207472616e7366657220746f20746865207a65726f2061646460008201527f7265737300000000000000000000000000000000000000000000000000000000602082015250565b7f4552433732313a20617070726f766520746f2063616c6c657200000000000000600082015250565b7f222c20226465736372697074696f6e223a20224120686967686c79206163636c60008201527f61696d656420636f6c6c656374696f6e206f6620737175617265732e222c202260208201527f696d616765223a2022646174613a696d6167652f7376672b786d6c3b6261736560408201527f36342c0000000000000000000000000000000000000000000000000000000000606082015250565b7f5345434f4e445f574f5244000000000000000000000000000000000000000000600082015250565b7f4552433732313a206f70657261746f7220717565727920666f72206e6f6e657860008201527f697374656e7420746f6b656e0000000000000000000000000000000000000000602082015250565b7f3c2f746578743e3c2f7376673e00000000000000000000000000000000000000600082015250565b7f4552433732313a20617070726f76652063616c6c6572206973206e6f74206f7760008201527f6e6572206e6f7220617070726f76656420666f7220616c6c0000000000000000602082015250565b7f4552433732313a2062616c616e636520717565727920666f7220746865207a6560008201527f726f206164647265737300000000000000000000000000000000000000000000602082015250565b7f4552433732313a206f776e657220717565727920666f72206e6f6e657869737460008201527f656e7420746f6b656e0000000000000000000000000000000000000000000000602082015250565b7f45524337323155524953746f726167653a2055524920736574206f66206e6f6e60008201527f6578697374656e7420746f6b656e000000000000000000000000000000000000602082015250565b7f227d000000000000000000000000000000000000000000000000000000000000600082015250565b7f4552433732313a206d696e7420746f20746865207a65726f2061646472657373600082015250565b7f45524337323155524953746f726167653a2055524920717565727920666f722060008201527f6e6f6e6578697374656e7420746f6b656e000000000000000000000000000000602082015250565b7f4552433732313a20617070726f76656420717565727920666f72206e6f6e657860008201527f697374656e7420746f6b656e0000000000000000000000000000000000000000602082015250565b7f4552433732314d657461646174613a2055524920717565727920666f72206e6f60008201527f6e6578697374656e7420746f6b656e0000000000000000000000000000000000602082015250565b7f7b226e616d65223a202200000000000000000000000000000000000000000000600082015250565b7f4552433732313a20617070726f76616c20746f2063757272656e74206f776e6560008201527f7200000000000000000000000000000000000000000000000000000000000000602082015250565b7f46495253545f574f524400000000000000000000000000000000000000000000600082015250565b7f646174613a6170706c69636174696f6e2f6a736f6e3b6261736536342c000000600082015250565b7f4552433732313a207472616e736665722063616c6c6572206973206e6f74206f60008201527f776e6572206e6f7220617070726f766564000000000000000000000000000000602082015250565b7f434f4c4f52000000000000000000000000000000000000000000000000000000600082015250565b613c8081613367565b8114613c8b57600080fd5b50565b613c9781613379565b8114613ca257600080fd5b50565b613cae81613385565b8114613cb957600080fd5b50565b613cc5816133d1565b8114613cd057600080fd5b5056fe416e204e465420772f20494420257320686173206265656e206d696e74656420746f2025734142434445464748494a4b4c4d4e4f505152535455565758595a6162636465666768696a6b6c6d6e6f707172737475767778797a303132333435363738392b2fa26469706673582212203758a00b97a17b7d4ae57a7b811d04a36eb96c94b65ca76e510049d09bf0ed8f64736f6c634300080100333c73766720786d6c6e733d27687474703a2f2f7777772e77332e6f72672f323030302f73766727207072657365727665417370656374526174696f3d27784d696e594d696e206d656574272076696577426f783d273020302033353020333530273e3c7374796c653e2e62617365207b2066696c6c3a2077686974653b20666f6e742d66616d696c793a2073657269663b20666f6e742d73697a653a20323470783b207d3c2f7374796c653e3c726563742077696474683d273130302527206865696768743d2731303025272066696c6c3d27626c61636b27202f3e3c7465787420783d273530252720793d273530252720636c6173733d27626173652720646f6d696e616e742d626173656c696e653d276d6964646c652720746578742d616e63686f723d276d6964646c65273e3c73766720786d6c6e733d27687474703a2f2f7777772e77332e6f72672f323030302f73766727207072657365727665417370656374526174696f3d27784d696e594d696e206d656574272076696577426f783d273020302033353020333530273e3c7374796c653e2e62617365207b2066696c6c3a2077686974653b20666f6e742d66616d696c793a2073657269663b20666f6e742d73697a653a20323470783b207d3c2f7374796c653e3c726563742077696474683d273130302527206865696768743d2731303025272066696c6c3d27272f3e3c7465787420783d273530252720793d273530252720636c6173733d27626173652720646f6d696e616e742d626173656c696e653d276d6964646c652720746578742d616e63686f723d276d6964646c65273e",
  "linkReferences": {},
  "deployedLinkReferences": {}
}